:020000040800F2
:1000000018070020890100083F1500082D1400087A
:100010003D15000827030008AD1900080000000086
:100020000000000000000000000000004315000870
:100030005F03000800000000411500084515000896
:10004000A3010008A3010008A3010008A301000800
:10005000A3010008A3010008A3010008A3010008F0
:10006000A3010008A3010008A3010008A3010008E0
:10007000A3010008A3010008A30100082903000848
:10008000A3010008A3010008A3010008A3010008C0
:10009000A3010008A3010008A3010008A3010008B0
:1000A000A3010008A3010008A3010008A3010008A0
:1000B000A3010008A3010008A3010008A301000890
:1000C000A3010008A3010008A3010008A301000880
:1000D000A301000881190008A3010008A30100087A
:1000E00061030008A3010008A301000800F002F862
:1000F00000F03AF80AA090E8000C82448344AAF188
:100100000107DA4501D100F02FF8AFF2090EBAE885
:100110000F0013F0010F18BFFB1A43F0010318473B
:10012000D8190000F8190000103A24BF78C878C127
:10013000FAD8520724BF30C830C144BF04680C60ED
:10014000704700000023002400250026103A28BF35
:1001500078C1FBD8520728BF30C148BF0B60704739
:100160001FB51FBD10B510BD00F0A3F81146FFF775
:10017000F7FF01F069FC00F0C1F803B4FFF7F2FFEC
:1001800003BC00F0C9F8000009488047094800474F
:10019000FEE7FEE7FEE7FEE7FEE7FEE7FEE7FEE737
:1001A000FEE7FEE704480549054A064B7047000094
:1001B00099150008ED00000818010020180700201C
:1001C000180300201803002040EA010370B59B07C4
:1001D0002ED14FF00136042A2AD308C810C99D1B1E
:1001E0009D43121F15EAC61517D0D8B2E1B2401AC6
:1001F00050EA056110D198B2A1B2401A50EA054107
:100200000AD123F07F4024F07F41401A50EA0521B3
:1002100002D1180EA0EB146070BDA342DBD018BA57
:1002200021BA884201D9012070BD4FF0FF3070BD66
:100230000AB9002070BD10F8013B11F8014B63B101
:10024000A3420AD1521E08D010F8013B11F8014B0D
:100250001BB1A34201D1521EEDD1181B70BD4FF04E
:10026000000200B5134694469646203922BFA0E806
:100270000C50A0E80C50B1F12001BFF4F7AF090712
:1002800028BFA0E80C5048BF0CC05DF804EB890003
:1002900028BF40F8042B08BF704748BF20F8022B46
:1002A00011F0804F18BF00F8012B7047704770475E
:1002B0007047754600F02CF8AE4605006946534677
:1002C00020F00700854618B020B5FFF76BFFBDE8AA
:1002D00020404FF000064FF000074FF000084FF0AD
:1002E000000B21F00701AC46ACE8C009ACE8C0093E
:1002F000ACE8C009ACE8C0098D46704710B50446AB
:10030000AFF300802046BDE81040FFF736BF000085
:1003100000487047B800002001491820ABBEFEE736
:10032000260002007047FEE7014800F08FB8000089
:100330007400002030B590F840500124AC40C56BEB
:100340006C60046863604368102B036803D0996095
:100350000068C26030BD9A600068C16030BD7047FF
:100360004FF4806000F09EB972B6FEE710B590F8C9
:1003700021100022022905D00421816380F8202069
:10038000012010BD01680B6823F00E030B600168AB
:100390000B6823F001030B6090F84030C46B01211F
:1003A00001FA03F3636080F8211080F820201046E2
:1003B00010BD000010B590F821100024022903D0D0
:1003C0000421816301243DE001680A6822F00E02E5
:1003D0000A6001680A6822F001020A601A4A01688C
:1003E000914201D1012121E0174A1432914201D1F9
:1003F00010211BE0144A2832914201D1891515E0E1
:10040000114A3C32914201D189140FE00E4A503218
:10041000914202D14FF4803108E00B4A643291429C
:1004200002D14FF4801101E04FF08071064A083A82
:100430005160012180F82110002180F82010416BCB
:1004400001B18847204610BD080002402DE9F05F49
:10045000C16B0C6801680B68D0F840C0042202FA36
:100460000CF2494DDFF824A1494E4A4FDFF828B17C
:10047000DFF828E122422CD05A072AD50A689206D2
:1004800003D40A6822F004020A600168A94201D17B
:10049000042219E0514501D1402215E0B14202D1B8
:1004A0004FF4806210E0B94202D14FF480420BE079
:1004B000594502D14FF4802206E0714502D14FF434
:1004C000800201E04FF080622F4908394A60C16A1A
:1004D0003BE04FF0020808FA0CF818EA040F4FF05E
:1004E00000094FF0010235D05FEA837832D50B68FE
:1004F0009B0605D40B6823F00A030B6080F82120CB
:100500000168A94201D1022219E0514501D12022FE
:1005100015E0B14202D14FF4007210E0B94202D1AD
:100520004FF400520BE0594502D14FF4003206E07F
:10053000714502D14FF4001201E04FF000721249F0
:1005400008394A6080F82090816A00291AD0BDE8F5
:10055000F05F0847082505FA0CF5254212D01B0765
:1005600010D50B6823F00E030B6090F84010C36B9E
:1005700002FA01F15960826380F8212080F820900E
:10058000016BE2E7BDE8F09F080002401C0002405A
:100590003000024044000240580002406C0002401B
:1005A00030B528B308C8134914221944B1FBF2F13D
:1005B0008900C16310498163022141771A6843F6BB
:1005C000F0718A43D0E900142143D0E902452C435D
:1005D0002143046921434469214384692143114330
:1005E000196000214163012242770177084630BD3E
:1005F000012030BDF8FFFDBF0000024070B5044689
:1006000090F82000002501280CD0012084F820005B
:1006100094F821600020012E06D084F820000225E5
:10062000284670BD022070BD022684F82160A063B8
:100630002068066826F0010606602046FFF77AFE6D
:10064000E06A00282068016802D041F00E0106E04F
:1006500021F0040101602068016841F00A01016095
:100660002068016841F001010160D9E770B50446D6
:1006700000F01AF90546601C02D0044800780444D2
:1006800000F012F9401BA042FAD370BD1C000020FC
:10069000B0F5806F02D10249012048707047000018
:1006A00000000020044910B50A68024202D0086028
:1006B000FFF7EEFF10BD0000140401402DE9F84FD4
:1006C000DFF8B8910024A9F1040B23460F2709F1A4
:1006D000040AABF1040EC9E00125A5402A40AA4254
:1006E0007DD1674ED1F804C0ACEB0608B44532D0DA
:1006F00014DCBCF1030F3AD009DCBCF1000F2AD0A6
:10070000BCF1010F1CD0BCF1020F31D11DE0BCF1D6
:10071000110F17D0BCF1120F2AD119E0B8F5881FBC
:1007200019D006DCB8F5803F15D0B8F5801F1FD171
:1007300011E0B8F5001F0ED0B8F5041F18D10AE07B
:10074000CB6815E0CB681B1D12E0CB6808330FE0C7
:10075000CB680C330CE08B682BB1012B4FF00803F6
:1007600003D0456104E0042302E0056100E00023BA
:10077000FF2A01D8064601E000F104064FEA84058D
:1007800001D9A5F12005D6F8008007FA05FC28EA72
:100790000C0803FA05F548EA0508C6F800804D681C
:1007A000ED0062D5374DAE6946F00106AE61AD6928
:1007B00024F0030605F001050095334D06EB050C0A
:1007C000DCF80850A607360F07FA06F825EA0805F0
:1007D000DFF8B880404503D14FF0000817E044E04F
:1007E000DFF8AC80404502D14FF001080FE0DFF8A0
:1007F000A480404502D14FF0020808E0DFF898805D
:10080000404502D14FF0030801E04FF0040808FA18
:1008100006F848EA0508CCF808804D68D9F8006069
:10082000ED024D4601D5164300E096432E604D681B
:10083000DAF80060AD02554601D5164300E0964354
:100840002E604D68DBF80060AD035D4601D51643B0
:1008500000E096432E604D68DEF80060ED037546BB
:1008600001D5164300E096432E60641C0D682A46AD
:10087000E5407FF431AFBDE8F88F00000804014087
:10088000000011100010024000000140000801406B
:10089000000C014000100140001401400AB1016148
:1008A00070470904FBE700000148806870470000BA
:1008B0001C00002002488168027811448160704762
:1008C0001C000020074810B5016841F010010160CC
:1008D000032000F075F80F2000F006F800F024F86F
:1008E000002010BD0020024070B50D4D04464FF4AD
:1008F0007A712878B1FBF0F00A490968B1FBF0F091
:1009000000F0DCFA48B9102C07D200222146501E14
:1009100000F036F800206C6070BD012070BD000052
:100920001C000020280000200C4808B5816941F017
:1009300001018161816901F001010091C16941F00A
:100940008051C161C06900F0805000900448416846
:1009500021F0E06141F00071416008BD00100240EB
:1009600000000140002809DB00F01F020121914036
:100970004009800000F1E020C0F80011704700003D
:10098000F0B40E4B1B680C46C3F30223C3F10705FA
:10099000042D00D90425191D072901D2002300E0E8
:1009A000DB1E012606FA05F1491E214099409E40B2
:1009B000761E16403143F0BC00F0F9BF0CED00E0AC
:1009C000064900F0070208684FF6FF03184040EAA6
:1009D0000220034A10430860704700000CED00E05D
:1009E0000000FA052DE9F0470F46050061D0434E9F
:1009F000306800F00700B84209D2306820F00700E4
:100A000038433060306800F00700B84251D12868A0
:100A10003B4C810712D5400703D5606840F4E06085
:100A200060602878000703D5606840F4605060601B
:100A30006068A96820F0F000084360602878C0076B
:100A400028D06868012810D02168022810D08907B2
:100A500000292EDA616821F0030101436160FFF78C
:100A600023FF804641F288390DE021688903EFE7D2
:100A70008901EDE7FFF718FFA0EB0801494502D90E
:100A80000320BDE8F0876068696800F00C00B0EBF7
:100A9000810FEFD1306800F00700B8420BD9306801
:100AA00020F0070038433060306800F00700B8429B
:100AB00001D00120E5E72878400705D56068E9689E
:100AC00020F4E060084360602878000706D560687D
:100AD000296920F4605040EAC100606000F038F8F5
:100AE0006168084AC1F30311515CC84006490860B7
:100AF00006480068FFF7F8FE0020C2E70020024029
:100B000000100240DE1A000828000020200000200B
:100B10000448054900684968044AC1F30221515C50
:100B2000C84070472800002000100240EE1A00085C
:100B30000448054900684968044AC1F3C221515C70
:100B4000C84070472800002000100240EE1A00083C
:100B50000E4A51680E4801F00C03042B11D0082BEB
:100B60000FD10C48C1F38343C903C05C0AD5516857
:100B7000084AC1F34041921E515C054A5043B0FB04
:100B8000F1F07047044948437047000000100240EC
:100B900000127A00CE1A000800093D002DE9F84F36
:100BA000040070D02078C04DC00749D06868C0F3F9
:100BB0008100012807D06868C0F38100022809D1AC
:100BC0006868C00306D52868800339D560680028A6
:100BD000E7D035E06068B0F5803F0BD010B1B0F5DC
:100BE000A02F11D0286820F480302860286820F4D5
:100BF000802002E0286840F480302860606890B16E
:100C0000FFF752FE06460AE0286840F4802028607C
:100C1000F0E700BFFFF748FE801B642873D8286800
:100C20008003F7D50CE0FFF73FFE064605E000BF66
:100C3000FFF73AFE801B6428F0D828688003F7D4B9
:100C400020789A4E80074FF001094FF0000839D5FF
:100C5000686810F00C0F07D06868C0F381000228A4
:100C600009D16868C00306D42868800714D52069B4
:100C7000012808D110E02069B0B1C6F80090FFF754
:100C800013FE074605E00AE1FFF70EFEC01B02282F
:100C9000C4D828688007F7D52868616920F0F80073
:100CA00040EAC10028600DE0C6F80080FFF7FCFDB7
:100CB000074604E0FFF7F8FDC01B022823D8286888
:100CC0008007F7D4207800072CD57948A169D9B1DD
:100CD000C0F80090FFF7E8FD074604E0FFF7E4FDE9
:100CE000C01B02280FD8686A8007F7D571484FF4F7
:100CF000FA510068B0FBF1F0009000BF0098411E6F
:100D00000091FAD20EE080E0C0F80080FFF7CCFD41
:100D1000074604E0FFF7C8FDC01B022875D8686AC3
:100D20008007F7D42078400760D5E8690027C00025
:100D300008D4E86940F08050E861E869012700F0D4
:100D4000805000905C480168C90513D4016883464F
:100D500041F480710160FFF7A7FD824606E000BF05
:100D6000FFF7A2FDA0EB0A0064284ED8DBF80000D4
:100D7000C005F5D5E06801280AD008B1052813D0D0
:100D8000286A20F001002862286A20F0040002E0AE
:100D9000286A40F001002862E06841F2883B98B17F
:100DA000FFF782FD82460BE0286A40F004002862CB
:100DB000EEE700BFFFF778FDA0EB0A0159455AD8CE
:100DC000286A8007F6D50CE0FFF76EFD824605E045
:100DD000FFF76AFDA0EB0A0159454CD8286A800745
:100DE000F6D41FB1E86920F08050E861E06988B36B
:100DF0006968C1F38101022944D00228C6F86080E5
:100E000004D0FFF751FD044638E034E0FFF74CFD15
:100E1000074604E0FFF748FDC01B02282BD82868CE
:100E20008001F7D4206AB0F5803F05D16868A168D9
:100E300020F4003008436860D4E908010843696879
:100E400021F4741108436860C6F86090FFF72CFD28
:100E5000044606E025E000BFFFF726FD001B022840
:100E600009D828688001F7D51BE000BFFFF71CFDFB
:100E7000001B022802D90320BDE8F88F28688001F2
:100E8000F4D40EE00128F7D06868226A00F48031BB
:100E9000914204D1616A00F47010884201D00120AF
:100EA000EAE70020E8E700000010024000004242AC
:100EB00080044242280000200070004010B5401E0F
:100EC000B0F1807F01D3012010BD4FF0E0246061BC
:100ED0000F21601700F06BFD0020A061072020614A
:100EE000002010BD704710B504460068406994F8B2
:100EF0004110C0F3C010212911D180B120681430F5
:100F000050E8001F21F0800140E80012002AF5D1CE
:100F1000A06B08B1FFF72AFA204600F0E4FB206836
:100F2000406994F84210C0F38010222911D180B199
:100F30002068143050E8001F21F0400140E8001202
:100F4000002AF5D1E06B08B1FFF710FA204600F057
:100F5000A3FB002010BD7047F8B50168044608687F
:100F6000CA684B6910F00F0F4FF000055AD003F01C
:100F7000010602F49077374365D0C10705D0D1054B
:100F800003D5616C41F001016164410705D5D907C2
:100F900003D0616C41F002016164810705D5D90776
:100FA00003D0616C41F004016164010707D502F0D0
:100FB0002001314303D0616C41F008016164616C30
:100FC00000293BD0800604D5900602D5204600F0CB
:100FD00098FB20684069616CC0F3801001F0080143
:100FE000014320462BD000F057FB206840694006A3
:100FF00021D52068143050E8001F21F0400140E85E
:101000000012002AF5D1E06BA8B16D494163E06B95
:10101000FFF7D0F9002811D0E06B416B01B0BDE8BB
:10102000F040084783060ED593060CD52046BDE850
:10103000F84000F066BB2046FFF78DFFF8BDFFF7D4
:101040008AFF6564F8BD266B2023012E7CD1C6067D
:101050007AD5D60678D508684868009048694FF078
:101060000206400640D5E16B086840680004000CA9
:10107000E8D0A28D8242E5D9E085886920282DD06C
:1010800020680C3050E8001F21F4807140E8001205
:10109000002AF5D12168143151E8000F20F0010039
:1010A00041E80002002AF5D12068143050E8001F02
:1010B00021F0400140E80012002AF5D184F84230C6
:1010C000256320680C3050E8001F21F0100140E833
:1010D0000012002AF5D1E06BFFF748F96663A08D96
:1010E000E18D401A81B22AE0A08DE18D401A81B2D3
:1010F000E08D0028A6D00029A4D022680C3252E846
:10110000000F20F4907042E80007002FF5D120680E
:10111000143050E8002F22F0010240E80027002F91
:10112000F5D184F84230256320680C3050E8002F58
:1011300022F0100240E80023002BF5D16663204620
:10114000FFF7D0FEF8BDFFE705062BD5150629D51C
:1011500094F841002128F5D1A068B0F5805F01D155
:101160002069B0B1206A411C216221680078486082
:10117000E08C401E0004000CE084E3D12068C168CC
:1011800021F08001C1602068C16841F04001C16068
:10119000D8E7206A0088C0F308004860206A801CF5
:1011A0002062E5E74006CDD55006CBD5CA6820467B
:1011B00022F04002CA6084F8413000F036F9C1E7FD
:1011C0009B15000870B5040004D094F84100002578
:1011D00010B106E0012070BD84F84050204600F0B8
:1011E00023F8242084F841002068C16821F40051CC
:1011F000C160204600F0E6FA2068016921F49041C0
:1012000001612068416921F02A0141612068C168BB
:1012100041F40051C1606564202084F8410084F8E5
:1012200042006563002070BD70B586B0002506469B
:1012300000950195029503950068224988423ED1A8
:101240002149886940F480408861886900F48040C1
:101250000490886940F00400886188691B4C00F0A4
:101260000400049048150090022001900320039090
:1012700069462046FFF722FA2015CDE900056946A8
:1012800020460295FFF71AFA124C1148C4E90005EE
:101290008020C4E9025025616561A5612046E561B1
:1012A000FFF77EF908B1FFF75FF8F46300221146FB
:1012B00025206662FFF764FB2520FFF753FB06B08D
:1012C00070BD0000003801400010024000080140DD
:1012D000580002407400002090F84230202B01D0CA
:1012E0000220704721B11AB10023036300F0C6BA8F
:1012F0000120704770B51D4A0168914235D1C06B1D
:10130000006840681A49C0F1080082B20020A1F1CB
:10131000080302E00C5C1C54401C9042FADB1449A8
:101320004FF0FF330839134800F02FF8104805221A
:1013300011A10838FEF748FF0D4C00250A3C30B1DA
:1013400004220FA1A01CFEF73FFF18B103E001200B
:10135000207000E0257044F80A5F08226560BDE84F
:10136000704003490348FFF7B7BF70BD0038014024
:101370000A0000202C0000205374617274000000E9
:1013800053746F700000000070472DE9F843044665
:1013900090F84100984616460D46202802D00220BB
:1013A000BDE8F88385B17EB100206064212084F817
:1013B0004100FFF779FAA6848146E684A0682027D9
:1013C000B0F5805F02D003E00120E9E7206910B1A9
:1013D0002E4600250EE000260CE08021204600F07D
:1013E00095FAA8B9C6B116F8010B21684860E08CDF
:1013F000401EE084E08C4B464FF00002CDF80080A8
:101400000028EAD14FF04001204600F07FFA40B1B9
:1014100084F841700320C3E735F8020BC0F30800DD
:10142000E3E784F841700020BAE77047FEE7000068
:101430002DE9F04186B000242C48009401940294D8
:101440000394816941F010018161816901F010010B
:101450000491816941F020018161816901F02001DD
:101460000491816941F004018161816901F0040105
:101470000491816941F00801816180691C4F00F08D
:10148000080004900022FF213846FFF707FADFF832
:101490006480002203214046FFF700FAFF20012666
:1014A000CDE90006022569463846CDE90245FFF739
:1014B00005F90320CDE9000669464046CDE902451D
:1014C000FFF7FCF8680200900B48CDE9010569467A
:1014D0004046FFF7F3F8002211462820FFF750FAA4
:1014E0002820FFF73FFA06B0BDE8F0810010024067
:1014F00000080140000C01400000111010B50E4C16
:101500000C480C2120604FF4E13060600020A060A6
:10151000E060C4E90401A061E0612046FFF752FEEB
:1015200008B172B6FEE72068C16841F01001C160E1
:1015300010BD0000003801402C000020FEE7FEE74F
:1015400070477047FFF7B6B910B590B028216846CC
:10155000FEF785FE14210AA8FEF781FE0220009006
:101560000120049010200024059007946846FFF79E
:1015700015FB08B172B6FEE70F20CDE90A040C9402
:101580000D9400210AA80E94FFF72CFA002801D030
:1015900072B6FEE710B010BD704710B5406A00216A
:1015A000C185C184FFF7D7FC10BD70B5446A2068BF
:1015B000406994F84110C0F3C0100025212904D1DE
:1015C00018B1E584204600F08EF82068406994F850
:1015D0004210C0F38010222904D118B1E5852046BD
:1015E00000F05AF8606C40F0100060642046FFF78D
:1015F000B2FC70BD10B50146406A096809684FF039
:10160000000289062ED4C28501680C3151E8003FE2
:1016100023F4807341E80034002CF5D101681431C3
:1016200051E8003F23F0010341E80034002CF5D1DC
:101630000168143151E8003F23F0400341E80034D1
:10164000002CF5D1202180F84210016B012909D12D
:1016500001680C3151E8003F23F0100341E80034E9
:10166000002CF5D14263016B012902D0FFF742FE45
:1016700010BD818DFFF736FC10BD10B5406A012109
:101680004163016B012902D0FFF77EFE10BD818D01
:101690004908FFF727FC10BD01680C3151E8002F05
:1016A00022F4907241E80023002BF5D10168143137
:1016B00051E8002F22F0010241E80023002BF5D170
:1016C000016B012909D101680C3151E8002F22F08A
:1016D000100241E80023002BF5D1202180F84210B0
:1016E00000210163704701680C3151E8002F22F09E
:1016F000C00241E80023002BF5D1202180F84110E1
:10170000704708B590F84210222901D0022008BD88
:1017100082684FF480539A4201D1016921B1816AF4
:101720009A421BD04AB10AE00268816A5268C2F349
:1017300008020A80816A891C08E0026972B10268A5
:10174000526802F07F020A70816A491C8162C18D71
:10175000491E0904090CC18503D01BE002685268C8
:10176000F1E70168CA6822F02002CA600168CA680D
:1017700022F48072CA6001684A6922F001024A615B
:10178000202180F8421000214163026B012A03D01E
:10179000FFF7B0FD002008BD016301680C3151E87E
:1017A000002F22F0100241E80023002BF5D1016840
:1017B0000A68D20602D50A6849680091818DFFF750
:1017C00091FBE7E770B5044600680169E26821F41F
:1017D0004051114301612169A068084361690843D0
:1017E0002168CA6841F20C639A430243CA602068C8
:1017F0004169A26921F44071114341611E49206889
:10180000884202D1FFF794F901E0FFF781F900EB7C
:10181000C00101EB0012606864218000B2FBF0F3AC
:10182000B3FBF1F36FF018067343B2FBF0F5B2FBB4
:10183000F0F605EB8305322303EB0515B5FBF1F557
:10184000B6FBF1F605F0F00505EB0615B2FBF0F678
:10185000B2FBF0F0B0FBF1F06FF01802504306EB72
:10186000800003EB0010B0FBF1F0216800F00F00E6
:101870002844886070BD00000038014038B581629E
:1018800004468285002013466064222284F84220A8
:10189000E56B1B4AAA62E56B1A4AEA62E56B1A4AD3
:1018A0002A63E26B50630A462168E06B091DFEF76C
:1018B000A5FE2068016840680090206948B1206852
:1018C0000C3050E8001F41F4807140E80012002AFB
:1018D000F5D12068143050E8001F41F0010140E8C4
:1018E0000012002AF5D12068143050E8001F41F0A2
:1018F000400140E80012002AF5D1002038BD000068
:10190000F51500087B160008AB1500082DE9F84313
:10191000984617460D460446089E24E0701C22D0C7
:10192000FEF7C2FFA0EB0800B0421AD8CEB1206883
:10193000C168490717D5802D15D0402D13D00168F7
:10194000C94309070FD4016800254068009020466C
:10195000FFF7A2FE0820606484F840500120BDE833
:10196000F8830320FBE72068006835EA000004D014
:101970000020B842D2D00020F1E70120F9E70000B2
:10198000094808B500680168C90608D501684068BB
:1019900000900548FFF7A7FA0348FFF7ABFCBDE846
:1019A00008400148FFF7D8BA2C000020FEE70907DD
:1019B000090E002804DB00F1E02080F800147047D5
:1019C00000F00F0000F1E02080F8141D70470000C7
:1019D0002DE9F0410A21B0FBF1F2B0FBF1F501FB7A
:1019E0001206DFF85880002201214046FEF756FF1C
:1019F000012202214046FEF751FF114C2068114F91
:101A000000F47F40795D084320600220FEF72EFE3F
:101A1000012211464046FEF741FF002202214046C6
:101A2000FEF73CFF2068B95D00F47F40084320606A
:101A3000BDE8F0410220FEF719BE0000000C014095
:101A40000C0801401200002008B5FEF73BFFFFF72D
:101A50007BFDFFF7EDFC1A48416941F0010141614E
:101A60004069002200F00100009011460F20FEF7AF
:101A700087FF0F20FEF776FFFFF740FD6423082263
:101A800010491148FFF781FC0E49082208310E4821
:101A9000FFF722FC0B4C0026A41E00256078FFF700
:101AA00097FF6D1CC82DF9DB20780028F5D06078F1
:101AB000401C607060786328EFD96670EDE7000025
:101AC00000100240020000202C000020010202034E
:101AD0000405060708090A0B0C0D0E0F1010000074
:101AE00000000000000001020304060708090000CE
:101AF0000000010203040000181B00080000002081
:101B00002C00000028010008441B00082C000020C5
:101B1000EC06000044010008010053544152542EC9
:101B20002E2E0000000000000000C0F9A4B0999221
:101B300082F880900100000010000000000000000A
:041B400000127A0015
:04000005080000ED02
:00000001FF
